{
  "_format": "hh-sol-artifact-1",
  "contractName": "EventManager",
  "sourceName": "contracts/EventManager.sol",
  "abi": [
    {
      "inputs": [
        {
          "internalType": "uint256",
          "name": "eventId",
          "type": "uint256"
        }
      ],
      "name": "attend",
      "outputs": [],
      "stateMutability": "nonpayable",
      "type": "function"
    },
    {
      "inputs": [
        {
          "internalType": "address payable",
          "name": "organizer",
          "type": "address"
        }
      ],
      "name": "createEvent",
      "outputs": [
        {
          "internalType": "uint256",
          "name": "",
          "type": "uint256"
        }
      ],
      "stateMutability": "nonpayable",
      "type": "function"
    },
    {
      "inputs": [],
      "name": "eventCount",
      "outputs": [
        {
          "internalType": "uint256",
          "name": "",
          "type": "uint256"
        }
      ],
      "stateMutability": "view",
      "type": "function"
    },
    {
      "inputs": [
        {
          "internalType": "uint256",
          "name": "",
          "type": "uint256"
        }
      ],
      "name": "eventOrganizers",
      "outputs": [
        {
          "internalType": "address payable",
          "name": "",
          "type": "address"
        }
      ],
      "stateMutability": "view",
      "type": "function"
    },
    {
      "inputs": [
        {
          "internalType": "uint256",
          "name": "",
          "type": "uint256"
        }
      ],
      "name": "events",
      "outputs": [
        {
          "internalType": "contract Event",
          "name": "",
          "type": "address"
        }
      ],
      "stateMutability": "view",
      "type": "function"
    },
    {
      "inputs": [
        {
          "internalType": "uint256",
          "name": "eventId",
          "type": "uint256"
        }
      ],
      "name": "rsvp",
      "outputs": [],
      "stateMutability": "payable",
      "type": "function"
    }
  ],
  "bytecode": "0x608060405234801561001057600080fd5b50610daa806100206000396000f3fe6080604052600436106100555760003560e01c80630b7914301461005a5780633e5246ab1461009757806341de1127146100d457806371be2e4a146100fd578063787b8d4714610128578063b7b492f714610165575b600080fd5b34801561006657600080fd5b50610081600480360381019061007c9190610688565b610181565b60405161008e9190610734565b60405180910390f35b3480156100a357600080fd5b506100be60048036038101906100b99190610688565b6101b4565b6040516100cb9190610770565b60405180910390f35b3480156100e057600080fd5b506100fb60048036038101906100f69190610688565b6101e7565b005b34801561010957600080fd5b50610112610456565b60405161011f919061079a565b60405180910390f35b34801561013457600080fd5b5061014f600480360381019061014a91906107e1565b61045c565b60405161015c919061079a565b60405180910390f35b61017f600480360381019061017a9190610688565b61054f565b005b60016020528060005260406000206000915054906101000a900473ffffffffffffffffffffffffffffffffffffffff1681565b60006020528060005260406000206000915054906101000a900473ffffffffffffffffffffffffffffffffffffffff1681565b60006001600083815260200190815260200160002060009054906101000a900473ffffffffffffffffffffffffffffffffffffffff1690508073ffffffffffffffffffffffffffffffffffffffff1663c1a18ca1336040518263ffffffff1660e01b8152600401610258919061082f565b602060405180830381865afa158015610275573d6000803e3d6000fd5b505050506040513d601f19601f820116820180604052508101906102999190610882565b6102d8576040517f08c379a00000000000000000000000000000000000000000000000000000000081526004016102cf9061090c565b60405180910390fd5b8073ffffffffffffffffffffffffffffffffffffffff1663396dc854336040518263ffffffff1660e01b8152600401610311919061082f565b602060405180830381865afa15801561032e573d6000803e3d6000fd5b505050506040513d601f19601f820116820180604052508101906103529190610882565b15610392576040517f08c379a000000000000000000000000000000000000000000000000000000000815260040161038990610978565b60405180910390fd5b8073ffffffffffffffffffffffffffffffffffffffff1663b07795f9336040518263ffffffff1660e01b81526004016103cb919061082f565b600060405180830381600087803b1580156103e557600080fd5b505af11580156103f9573d6000803e3d6000fd5b5050505060003390508073ffffffffffffffffffffffffffffffffffffffff166108fc678ac7230489e800009081150290604051600060405180830381858888f19350505050158015610450573d6000803e3d6000fd5b50505050565b60025481565b600060026000815480929190610471906109c7565b919050555060405161048290610640565b604051809103906000f08015801561049e573d6000803e3d6000fd5b5060016000600254815260200190815260200160002060006101000a81548173ffffffffffffffffffffffffffffffffffffffff021916908373ffffffffffffffffffffffffffffffffffffffff16021790555081600080600254815260200190815260200160002060006101000a81548173ffffffffffffffffffffffffffffffffffffffff021916908373ffffffffffffffffffffffffffffffffffffffff1602179055506002549050919050565b678ac7230489e800003414610599576040517f08c379a000000000000000000000000000000000000000000000000000000000815260040161059090610a5b565b60405180910390fd5b60006001600083815260200190815260200160002060009054906101000a900473ffffffffffffffffffffffffffffffffffffffff1690508073ffffffffffffffffffffffffffffffffffffffff16630f2e10b5336040518263ffffffff1660e01b815260040161060a919061082f565b600060405180830381600087803b15801561062457600080fd5b505af1158015610638573d6000803e3d6000fd5b505050505050565b6102f980610a7c83390190565b600080fd5b6000819050919050565b61066581610652565b811461067057600080fd5b50565b6000813590506106828161065c565b92915050565b60006020828403121561069e5761069d61064d565b5b60006106ac84828501610673565b91505092915050565b600073ffffffffffffffffffffffffffffffffffffffff82169050919050565b6000819050919050565b60006106fa6106f56106f0846106b5565b6106d5565b6106b5565b9050919050565b600061070c826106df565b9050919050565b600061071e82610701565b9050919050565b61072e81610713565b82525050565b60006020820190506107496000830184610725565b92915050565b600061075a826106b5565b9050919050565b61076a8161074f565b82525050565b60006020820190506107856000830184610761565b92915050565b61079481610652565b82525050565b60006020820190506107af600083018461078b565b92915050565b6107be8161074f565b81146107c957600080fd5b50565b6000813590506107db816107b5565b92915050565b6000602082840312156107f7576107f661064d565b5b6000610805848285016107cc565b91505092915050565b6000610819826106b5565b9050919050565b6108298161080e565b82525050565b60006020820190506108446000830184610820565b92915050565b60008115159050919050565b61085f8161084a565b811461086a57600080fd5b50565b60008151905061087c81610856565b92915050565b6000602082840312156108985761089761064d565b5b60006108a68482850161086d565b91505092915050565b600082825260208201905092915050565b7f4d75737420525356502066697273740000000000000000000000000000000000600082015250565b60006108f6600f836108af565b9150610901826108c0565b602082019050919050565b60006020820190508181036000830152610925816108e9565b9050919050565b7f416c726561647920726567697374657265640000000000000000000000000000600082015250565b60006109626012836108af565b915061096d8261092c565b602082019050919050565b6000602082019050818103600083015261099181610955565b9050919050565b7f4e487b7100000000000000000000000000000000000000000000000000000000600052601160045260246000fd5b60006109d282610652565b91507fffffffffffffffffffffffffffffffffffffffffffffffffffffffffffffffff8203610a0457610a03610998565b5b600182019050919050565b7f4465706f736974206d757374206265203130206d617469630000000000000000600082015250565b6000610a456018836108af565b9150610a5082610a0f565b602082019050919050565b60006020820190508181036000830152610a7481610a38565b905091905056fe608060405234801561001057600080fd5b506102d9806100206000396000f3fe608060405234801561001057600080fd5b506004361061004c5760003560e01c80630f2e10b514610051578063396dc8541461006d578063b07795f91461009d578063c1a18ca1146100b9575b600080fd5b61006b60048036038101906100669190610240565b6100e9565b005b61008760048036038101906100829190610240565b610143565b6040516100949190610288565b60405180910390f35b6100b760048036038101906100b29190610240565b610163565b005b6100d360048036038101906100ce9190610240565b6101bd565b6040516100e09190610288565b60405180910390f35b60016000808373ffffffffffffffffffffffffffffffffffffffff1673ffffffffffffffffffffffffffffffffffffffff16815260200190815260200160002060006101000a81548160ff02191690831515021790555050565b60016020528060005260406000206000915054906101000a900460ff1681565b60018060008373ffffffffffffffffffffffffffffffffffffffff1673ffffffffffffffffffffffffffffffffffffffff16815260200190815260200160002060006101000a81548160ff02191690831515021790555050565b60006020528060005260406000206000915054906101000a900460ff1681565b600080fd5b600073ffffffffffffffffffffffffffffffffffffffff82169050919050565b600061020d826101e2565b9050919050565b61021d81610202565b811461022857600080fd5b50565b60008135905061023a81610214565b92915050565b600060208284031215610256576102556101dd565b5b60006102648482850161022b565b91505092915050565b60008115159050919050565b6102828161026d565b82525050565b600060208201905061029d6000830184610279565b9291505056fea26469706673582212208ced28b61abe8e4099547d95c0f1dbf401167a44502e6caac11580a74d04a95364736f6c63430008110033a2646970667358221220523908e6a112159b324855709c9e8d63d4841af00125727d8b902b50f76cf21a64736f6c63430008110033",
  "linkReferences": {},
  "deployedLinkReferences": {}
}